{
  "_format": "hh-sol-artifact-1",
  "contractName": "Transactions",
  "sourceName": "contracts/Transactions.sol",
  "abi": [
    {
      "anonymous": false,
      "inputs": [
        {
          "indexed": false,
          "internalType": "address",
          "name": "from",
          "type": "address"
        },
        {
          "indexed": false,
          "internalType": "address",
          "name": "receiver",
          "type": "address"
        },
        {
          "indexed": false,
          "internalType": "uint256",
          "name": "amount",
          "type": "uint256"
        },
        {
          "indexed": false,
          "internalType": "string",
          "name": "message",
          "type": "string"
        },
        {
          "indexed": false,
          "internalType": "uint256",
          "name": "timestamp",
          "type": "uint256"
        },
        {
          "indexed": false,
          "internalType": "string",
          "name": "keyword",
          "type": "string"
        }
      ],
      "name": "Transfer",
      "type": "event"
    },
    {
      "inputs": [
        {
          "internalType": "address payable",
          "name": "receiver",
          "type": "address"
        },
        {
          "internalType": "uint256",
          "name": "amount",
          "type": "uint256"
        },
        {
          "internalType": "string",
          "name": "message",
          "type": "string"
        },
        {
          "internalType": "string",
          "name": "keyword",
          "type": "string"
        }
      ],
      "name": "addToBlockchain",
      "outputs": [],
      "stateMutability": "nonpayable",
      "type": "function"
    },
    {
      "inputs": [],
      "name": "getAllTransactions",
      "outputs": [
        {
          "components": [
            {
              "internalType": "address",
              "name": "sender",
              "type": "address"
            },
            {
              "internalType": "address",
              "name": "receiver",
              "type": "address"
            },
            {
              "internalType": "uint256",
              "name": "amount",
              "type": "uint256"
            },
            {
              "internalType": "string",
              "name": "message",
              "type": "string"
            },
            {
              "internalType": "uint256",
              "name": "timestamp",
              "type": "uint256"
            },
            {
              "internalType": "string",
              "name": "keyword",
              "type": "string"
            }
          ],
          "internalType": "struct Transactions.TransferStruct[]",
          "name": "",
          "type": "tuple[]"
        }
      ],
      "stateMutability": "view",
      "type": "function"
    },
    {
      "inputs": [],
      "name": "getTransactionCount",
      "outputs": [
        {
          "internalType": "uint256",
          "name": "",
          "type": "uint256"
        }
      ],
      "stateMutability": "view",
      "type": "function"
    },
    {
      "inputs": [
        {
          "internalType": "uint256",
          "name": "num",
          "type": "uint256"
        }
      ],
      "name": "setNumber",
      "outputs": [],
      "stateMutability": "nonpayable",
      "type": "function"
    },
    {
      "inputs": [],
      "name": "testNumber",
      "outputs": [
        {
          "internalType": "uint256",
          "name": "",
          "type": "uint256"
        }
      ],
      "stateMutability": "view",
      "type": "function"
    }
  ],
  "bytecode": "0x6080604052600560025534801561001557600080fd5b50610c96806100256000396000f3fe608060405234801561001057600080fd5b50600436106100575760003560e01c80630d1972f31461005c57806327506f531461007a5780632e7700f0146100985780633fb5c1cb146100b6578063cc2d7ead146100d2575b600080fd5b6100646100ee565b6040516100719190610964565b60405180910390f35b6100826100f4565b60405161008f9190610942565b60405180910390f35b6100a0610337565b6040516100ad9190610964565b60405180910390f35b6100d060048036038101906100cb91906106d4565b610340565b005b6100ec60048036038101906100e79190610641565b61034a565b005b60025481565b60606001805480602002602001604051908101604052809291908181526020016000905b8282101561032e57838290600052602060002090600602016040518060c00160405290816000820160009054906101000a900473ffffffffffffffffffffffffffffffffffffffff1673ffffffffffffffffffffffffffffffffffffffff1673ffffffffffffffffffffffffffffffffffffffff1681526020016001820160009054906101000a900473ffffffffffffffffffffffffffffffffffffffff1673ffffffffffffffffffffffffffffffffffffffff1673ffffffffffffffffffffffffffffffffffffffff1681526020016002820154815260200160038201805461020190610b62565b80601f016020809104026020016040519081016040528092919081815260200182805461022d90610b62565b801561027a5780601f1061024f5761010080835404028352916020019161027a565b820191906000526020600020905b81548152906001019060200180831161025d57829003601f168201915b505050505081526020016004820154815260200160058201805461029d90610b62565b80601f01602080910402602001604051908101604052809291908181526020018280546102c990610b62565b80156103165780601f106102eb57610100808354040283529160200191610316565b820191906000526020600020905b8154815290600101906020018083116102f957829003601f168201915b50505050508152505081526020019060010190610118565b50505050905090565b60008054905090565b8060028190555050565b600160008082825461035c9190610a46565b9250508190555060016040518060c001604052803373ffffffffffffffffffffffffffffffffffffffff1681526020018673ffffffffffffffffffffffffffffffffffffffff16815260200185815260200184815260200142815260200183815250908060018154018082558091505060019003906000526020600020906006020160009091909190915060008201518160000160006101000a81548173ffffffffffffffffffffffffffffffffffffffff021916908373ffffffffffffffffffffffffffffffffffffffff16021790555060208201518160010160006101000a81548173ffffffffffffffffffffffffffffffffffffffff021916908373ffffffffffffffffffffffffffffffffffffffff16021790555060408201518160020155606082015181600301908051906020019061049b92919061050c565b506080820151816004015560a08201518160050190805190602001906104c292919061050c565b5050507f416cfa4330a4565f45c2fd2dd4826a83a37443aba2ce6f79477c7355afac35fa3385858542866040516104fe969594939291906108d3565b60405180910390a150505050565b82805461051890610b62565b90600052602060002090601f01602090048101928261053a5760008555610581565b82601f1061055357805160ff1916838001178555610581565b82800160010185558215610581579182015b82811115610580578251825591602001919060010190610565565b5b50905061058e9190610592565b5090565b5b808211156105ab576000816000905550600101610593565b5090565b60006105c26105bd846109b0565b61097f565b9050828152602081018484840111156105da57600080fd5b6105e5848285610b20565b509392505050565b6000813590506105fc81610c32565b92915050565b600082601f83011261061357600080fd5b81356106238482602086016105af565b91505092915050565b60008135905061063b81610c49565b92915050565b6000806000806080858703121561065757600080fd5b6000610665878288016105ed565b94505060206106768782880161062c565b935050604085013567ffffffffffffffff81111561069357600080fd5b61069f87828801610602565b925050606085013567ffffffffffffffff8111156106bc57600080fd5b6106c887828801610602565b91505092959194509250565b6000602082840312156106e657600080fd5b60006106f48482850161062c565b91505092915050565b60006107098383610825565b905092915050565b61071a81610aea565b82525050565b61072981610a9c565b82525050565b61073881610a9c565b82525050565b6000610749826109f0565b6107538185610a13565b935083602082028501610765856109e0565b8060005b858110156107a1578484038952815161078285826106fd565b945061078d83610a06565b925060208a01995050600181019050610769565b50829750879550505050505092915050565b60006107be826109fb565b6107c88185610a24565b93506107d8818560208601610b2f565b6107e181610c21565b840191505092915050565b60006107f7826109fb565b6108018185610a35565b9350610811818560208601610b2f565b61081a81610c21565b840191505092915050565b600060c08301600083015161083d6000860182610720565b5060208301516108506020860182610720565b50604083015161086360408601826108b5565b506060830151848203606086015261087b82826107b3565b915050608083015161089060808601826108b5565b5060a083015184820360a08601526108a882826107b3565b9150508091505092915050565b6108be81610ae0565b82525050565b6108cd81610ae0565b82525050565b600060c0820190506108e8600083018961072f565b6108f56020830188610711565b61090260408301876108c4565b818103606083015261091481866107ec565b905061092360808301856108c4565b81810360a083015261093581846107ec565b9050979650505050505050565b6000602082019050818103600083015261095c818461073e565b905092915050565b600060208201905061097960008301846108c4565b92915050565b6000604051905081810181811067ffffffffffffffff821117156109a6576109a5610bf2565b5b8060405250919050565b600067ffffffffffffffff8211156109cb576109ca610bf2565b5b601f19601f8301169050602081019050919050565b6000819050602082019050919050565b600081519050919050565b600081519050919050565b6000602082019050919050565b600082825260208201905092915050565b600082825260208201905092915050565b600082825260208201905092915050565b6000610a5182610ae0565b9150610a5c83610ae0565b9250827fffffffffffffffffffffffffffffffffffffffffffffffffffffffffffffffff03821115610a9157610a90610b94565b5b828201905092915050565b6000610aa782610ac0565b9050919050565b6000610ab982610ac0565b9050919050565b600073ffffffffffffffffffffffffffffffffffffffff82169050919050565b6000819050919050565b6000610af582610afc565b9050919050565b6000610b0782610b0e565b9050919050565b6000610b1982610ac0565b9050919050565b82818337600083830152505050565b60005b83811015610b4d578082015181840152602081019050610b32565b83811115610b5c576000848401525b50505050565b60006002820490506001821680610b7a57607f821691505b60208210811415610b8e57610b8d610bc3565b5b50919050565b7f4e487b7100000000000000000000000000000000000000000000000000000000600052601160045260246000fd5b7f4e487b7100000000000000000000000000000000000000000000000000000000600052602260045260246000fd5b7f4e487b7100000000000000000000000000000000000000000000000000000000600052604160045260246000fd5b6000601f19601f8301169050919050565b610c3b81610aae565b8114610c4657600080fd5b50565b610c5281610ae0565b8114610c5d57600080fd5b5056fea2646970667358221220f9ef4640d9897036497a791d73615e68611d8ed320e078f71f5957870085320264736f6c63430008000033",
  "linkReferences": {},
  "deployedLinkReferences": {}
}